{
  "contractName": "Auction",
  "abi": [
    {
      "inputs": [
        {
          "internalType": "uint256",
          "name": "sellerJoinFee",
          "type": "uint256"
        },
        {
          "internalType": "uint256",
          "name": "sellerSellFeePercentage",
          "type": "uint256"
        }
      ],
      "stateMutability": "nonpayable",
      "type": "constructor"
    },
    {
      "inputs": [],
      "name": "stopJoining",
      "outputs": [],
      "stateMutability": "nonpayable",
      "type": "function"
    },
    {
      "inputs": [],
      "name": "closeContract",
      "outputs": [],
      "stateMutability": "nonpayable",
      "type": "function"
    },
    {
      "inputs": [
        {
          "internalType": "uint256",
          "name": "itemid",
          "type": "uint256"
        },
        {
          "internalType": "uint256",
          "name": "price",
          "type": "uint256"
        },
        {
          "internalType": "uint256",
          "name": "bidstep",
          "type": "uint256"
        }
      ],
      "name": "addItem",
      "outputs": [],
      "stateMutability": "payable",
      "type": "function"
    },
    {
      "inputs": [
        {
          "internalType": "uint256",
          "name": "itemid",
          "type": "uint256"
        }
      ],
      "name": "stopBidding",
      "outputs": [
        {
          "internalType": "bool",
          "name": "",
          "type": "bool"
        }
      ],
      "stateMutability": "nonpayable",
      "type": "function"
    },
    {
      "inputs": [
        {
          "internalType": "uint256",
          "name": "itemid",
          "type": "uint256"
        }
      ],
      "name": "getWinner",
      "outputs": [
        {
          "internalType": "address",
          "name": "",
          "type": "address"
        }
      ],
      "stateMutability": "view",
      "type": "function"
    },
    {
      "inputs": [
        {
          "internalType": "uint256",
          "name": "itemid",
          "type": "uint256"
        }
      ],
      "name": "getLastPrice",
      "outputs": [
        {
          "internalType": "uint256",
          "name": "",
          "type": "uint256"
        }
      ],
      "stateMutability": "view",
      "type": "function"
    },
    {
      "inputs": [
        {
          "internalType": "uint256",
          "name": "itemid",
          "type": "uint256"
        }
      ],
      "name": "getBidStep",
      "outputs": [
        {
          "internalType": "uint256",
          "name": "",
          "type": "uint256"
        }
      ],
      "stateMutability": "view",
      "type": "function"
    },
    {
      "inputs": [
        {
          "internalType": "uint256",
          "name": "itemid",
          "type": "uint256"
        }
      ],
      "name": "bid",
      "outputs": [],
      "stateMutability": "payable",
      "type": "function"
    }
  ],
  "bytecode": "0x60806040526001600360006101000a81548160ff021916908360038111156200002d576200002c62000110565b5b02179055503480156200003f57600080fd5b50604051620018c1380380620018c183398181016040528101906200006591906200017f565b8060001115801562000078575060648111155b620000ba576040517f08c379a0000000000000000000000000000000000000000000000000000000008152600401620000b19062000227565b60405180910390fd5b336000806101000a81548173ffffffffffffffffffffffffffffffffffffffff021916908373ffffffffffffffffffffffffffffffffffffffff1602179055508160018190555080600281905550505062000249565b7f4e487b7100000000000000000000000000000000000000000000000000000000600052602160045260246000fd5b600080fd5b6000819050919050565b620001598162000144565b81146200016557600080fd5b50565b60008151905062000179816200014e565b92915050565b600080604083850312156200019957620001986200013f565b5b6000620001a98582860162000168565b9250506020620001bc8582860162000168565b9150509250929050565b600082825260208201905092915050565b7f53656c6c204665652050657263656e746167652057726f6e6721000000000000600082015250565b60006200020f601a83620001c6565b91506200021c82620001d7565b602082019050919050565b60006020820190508181036000830152620002428162000200565b9050919050565b61166880620002596000396000f3fe60806040526004361061007b5760003560e01c806365fa2f7f1161004e57806365fa2f7f1461012d5780636c96a1201461016a578063798a712a14610181578063dcac3aba1461019d5761007b565b8063021baa16146100805780634129b2c9146100bd578063454a2ab3146100fa578063610be65414610116575b600080fd5b34801561008c57600080fd5b506100a760048036038101906100a29190610e6a565b6101da565b6040516100b49190610eb2565b60405180910390f35b3480156100c957600080fd5b506100e460048036038101906100df9190610e6a565b61031c565b6040516100f19190610f0e565b60405180910390f35b610114600480360381019061010f9190610e6a565b61035c565b005b34801561012257600080fd5b5061012b6105d1565b005b34801561013957600080fd5b50610154600480360381019061014f9190610e6a565b610783565b6040516101619190610f38565b60405180910390f35b34801561017657600080fd5b5061017f6107a3565b005b61019b60048036038101906101969190610f53565b61087f565b005b3480156101a957600080fd5b506101c460048036038101906101bf9190610e6a565b610b75565b6040516101d19190610f38565b60405180910390f35b6000813373ffffffffffffffffffffffffffffffffffffffff166004600083815260200190815260200160002060000160009054906101000a900473ffffffffffffffffffffffffffffffffffffffff1673ffffffffffffffffffffffffffffffffffffffff1614610281576040517f08c379a000000000000000000000000000000000000000000000000000000000815260040161027890611029565b60405180910390fd5b6001600381111561029557610294611049565b5b6004600085815260200190815260200160002060040160149054906101000a900460ff1660038111156102cb576102ca611049565b5b1461030b576040517f08c379a0000000000000000000000000000000000000000000000000000000008152600401610302906110ea565b60405180910390fd5b61031483610b95565b915050919050565b60006004600083815260200190815260200160002060040160009054906101000a900473ffffffffffffffffffffffffffffffffffffffff169050919050565b600160038111156103705761036f611049565b5b6004600083815260200190815260200160002060040160149054906101000a900460ff1660038111156103a6576103a5611049565b5b146103e6576040517f08c379a00000000000000000000000000000000000000000000000000000000081526004016103dd90611156565b60405180910390fd5b60046000828152602001908152602001600020600301543461040891906111a5565b60046000838152602001908152602001600020600201541115610460576040517f08c379a000000000000000000000000000000000000000000000000000000000815260040161045790611225565b60405180910390fd5b600073ffffffffffffffffffffffffffffffffffffffff166004600083815260200190815260200160002060040160009054906101000a900473ffffffffffffffffffffffffffffffffffffffff1673ffffffffffffffffffffffffffffffffffffffff161461055e576004600082815260200190815260200160002060040160009054906101000a900473ffffffffffffffffffffffffffffffffffffffff1673ffffffffffffffffffffffffffffffffffffffff166108fc60046000848152602001908152602001600020600301549081150290604051600060405180830381858888f1935050505015801561055c573d6000803e3d6000fd5b505b346004600083815260200190815260200160002060030181905550336004600083815260200190815260200160002060040160006101000a81548173ffffffffffffffffffffffffffffffffffffffff021916908373ffffffffffffffffffffffffffffffffffffffff16021790555050565b60008054906101000a900473ffffffffffffffffffffffffffffffffffffffff1673ffffffffffffffffffffffffffffffffffffffff163373ffffffffffffffffffffffffffffffffffffffff161461065f576040517f08c379a0000000000000000000000000000000000000000000000000000000008152600401610656906112b7565b60405180910390fd5b60038081111561067257610671611049565b5b600360009054906101000a900460ff16600381111561069457610693611049565b5b0361069e57600080fd5b60005b600580549050811015610756576003808111156106c1576106c0611049565b5b60046000600584815481106106d9576106d86112d7565b5b9060005260206000200154815260200190815260200160002060040160149054906101000a900460ff16600381111561071557610714611049565b5b146107435761074160058281548110610731576107306112d7565b5b9060005260206000200154610b95565b505b808061074e90611306565b9150506106a1565b5060038060006101000a81548160ff0219169083600381111561077c5761077b611049565b5b0217905550565b600060046000838152602001908152602001600020600301549050919050565b60008054906101000a900473ffffffffffffffffffffffffffffffffffffffff1673ffffffffffffffffffffffffffffffffffffffff163373ffffffffffffffffffffffffffffffffffffffff1614610831576040517f08c379a0000000000000000000000000000000000000000000000000000000008152600401610828906112b7565b60405180910390fd5b600180600381111561084657610845611049565b5b600360009054906101000a900460ff16600381111561086857610867611049565b5b1461087257600080fd5b61087c6002610d8d565b50565b600180600381111561089457610893611049565b5b600360009054906101000a900460ff1660038111156108b6576108b5611049565b5b146108c057600080fd5b6001543414610904576040517f08c379a00000000000000000000000000000000000000000000000000000000081526004016108fb906113c0565b60405180910390fd5b60008311610947576040517f08c379a000000000000000000000000000000000000000000000000000000000815260040161093e9061142c565b60405180910390fd5b600082101561098b576040517f08c379a000000000000000000000000000000000000000000000000000000000815260040161098290611498565b60405180910390fd5b6000600381111561099f5761099e611049565b5b6004600086815260200190815260200160002060040160149054906101000a900460ff1660038111156109d5576109d4611049565b5b14610a15576040517f08c379a0000000000000000000000000000000000000000000000000000000008152600401610a0c90611504565b60405180910390fd5b336004600086815260200190815260200160002060000160006101000a81548173ffffffffffffffffffffffffffffffffffffffff021916908373ffffffffffffffffffffffffffffffffffffffff16021790555081600460008681526020019081526020016000206002018190555082600460008681526020019081526020016000206003018190555060016004600086815260200190815260200160002060040160146101000a81548160ff02191690836003811115610ada57610ad9611049565b5b0217905550600584908060018154018082558091505060019003906000526020600020016000909190919091505560008054906101000a900473ffffffffffffffffffffffffffffffffffffffff1673ffffffffffffffffffffffffffffffffffffffff166108fc349081150290604051600060405180830381858888f19350505050158015610b6e573d6000803e3d6000fd5b5050505050565b600060046000838152602001908152602001600020600201549050919050565b600060036004600084815260200190815260200160002060040160146101000a81548160ff02191690836003811115610bd157610bd0611049565b5b0217905550600073ffffffffffffffffffffffffffffffffffffffff166004600084815260200190815260200160002060040160009054906101000a900473ffffffffffffffffffffffffffffffffffffffff1673ffffffffffffffffffffffffffffffffffffffff1603610c495760009050610d88565b600060646004600085815260200190815260200160002060030154600254610c719190611524565b610c7b9190611595565b905060008054906101000a900473ffffffffffffffffffffffffffffffffffffffff1673ffffffffffffffffffffffffffffffffffffffff166108fc829081150290604051600060405180830381858888f19350505050158015610ce3573d6000803e3d6000fd5b506004600084815260200190815260200160002060000160009054906101000a900473ffffffffffffffffffffffffffffffffffffffff1673ffffffffffffffffffffffffffffffffffffffff166108fc826004600087815260200190815260200160002060030154610d5691906111a5565b9081150290604051600060405180830381858888f19350505050158015610d81573d6000803e3d6000fd5b5060019150505b919050565b806003811115610da057610d9f611049565b5b600360009054906101000a900460ff166003811115610dc257610dc1611049565b5b10610e02576040517f08c379a0000000000000000000000000000000000000000000000000000000008152600401610df990611612565b60405180910390fd5b80600360006101000a81548160ff02191690836003811115610e2757610e26611049565b5b021790555050565b600080fd5b6000819050919050565b610e4781610e34565b8114610e5257600080fd5b50565b600081359050610e6481610e3e565b92915050565b600060208284031215610e8057610e7f610e2f565b5b6000610e8e84828501610e55565b91505092915050565b60008115159050919050565b610eac81610e97565b82525050565b6000602082019050610ec76000830184610ea3565b92915050565b600073ffffffffffffffffffffffffffffffffffffffff82169050919050565b6000610ef882610ecd565b9050919050565b610f0881610eed565b82525050565b6000602082019050610f236000830184610eff565b92915050565b610f3281610e34565b82525050565b6000602082019050610f4d6000830184610f29565b92915050565b600080600060608486031215610f6c57610f6b610e2f565b5b6000610f7a86828701610e55565b9350506020610f8b86828701610e55565b9250506040610f9c86828701610e55565b9150509250925092565b600082825260208201905092915050565b7f4f6e6c792053656c6c6572204f662054686973204974656d2043616e2043616c60008201527f6c20546869732046756e6374696f6e2100000000000000000000000000000000602082015250565b6000611013603083610fa6565b915061101e82610fb7565b604082019050919050565b6000602082019050818103600083015261104281611006565b9050919050565b7f4e487b7100000000000000000000000000000000000000000000000000000000600052602160045260246000fd5b7f43616e6e6f742053746f702042696464696e672042656361757365204974656d60008201527f204973204e6f7420496e2053616c652100000000000000000000000000000000602082015250565b60006110d4603083610fa6565b91506110df82611078565b604082019050919050565b60006020820190508181036000830152611103816110c7565b9050919050565b7f4974656d204973204e6f74204f6e2053616c6521000000000000000000000000600082015250565b6000611140601483610fa6565b915061114b8261110a565b602082019050919050565b6000602082019050818103600083015261116f81611133565b9050919050565b7f4e487b7100000000000000000000000000000000000000000000000000000000600052601160045260246000fd5b60006111b082610e34565b91506111bb83610e34565b92508282039050818111156111d3576111d2611176565b5b92915050565b7f426964205374657020497320486967686572205468616e2042696464696e6721600082015250565b600061120f602083610fa6565b915061121a826111d9565b602082019050919050565b6000602082019050818103600083015261123e81611202565b9050919050565b7f4f6e6c792041756374696f6e204f7267616e697a65722043616e2043616c6c2060008201527f546869732046756e6374696f6e21000000000000000000000000000000000000602082015250565b60006112a1602e83610fa6565b91506112ac82611245565b604082019050919050565b600060208201905081810360008301526112d081611294565b9050919050565b7f4e487b7100000000000000000000000000000000000000000000000000000000600052603260045260246000fd5b600061131182610e34565b91507fffffffffffffffffffffffffffffffffffffffffffffffffffffffffffffffff820361134357611342611176565b5b600182019050919050565b7f56616c75652053656e74204973204e6f742053616d65204173204a6f696e204660008201527f6565210000000000000000000000000000000000000000000000000000000000602082015250565b60006113aa602383610fa6565b91506113b58261134e565b604082019050919050565b600060208201905081810360008301526113d98161139d565b9050919050565b7f5072696365204d757374204265204d6f7265205468616e203021000000000000600082015250565b6000611416601a83610fa6565b9150611421826113e0565b602082019050919050565b6000602082019050818103600083015261144581611409565b9050919050565b7f4269642053746570204d7573742042652030204f72204d6f7265210000000000600082015250565b6000611482601b83610fa6565b915061148d8261144c565b602082019050919050565b600060208201905081810360008301526114b181611475565b9050919050565b7f4974656d20416c72656164792045786973747321000000000000000000000000600082015250565b60006114ee601483610fa6565b91506114f9826114b8565b602082019050919050565b6000602082019050818103600083015261151d816114e1565b9050919050565b600061152f82610e34565b915061153a83610e34565b925082820261154881610e34565b9150828204841483151761155f5761155e611176565b5b5092915050565b7f4e487b7100000000000000000000000000000000000000000000000000000000600052601260045260246000fd5b60006115a082610e34565b91506115ab83610e34565b9250826115bb576115ba611566565b5b828204905092915050565b7f496e76616c6964205374617465204368616e6765205265717565737465642100600082015250565b60006115fc601f83610fa6565b9150611607826115c6565b602082019050919050565b6000602082019050818103600083015261162b816115ef565b905091905056fea26469706673582212202bbfb12b8615141b4d897776e3619a3eb07adaae61b83c38f1e07d58c407c75c64736f6c63430008130033",
  "immutableReferences": {},
  "source": "// SPDX-License-Identifier: UNLICENSED\r\n\r\npragma solidity 0.8.19;\r\n\r\n/** \r\n * @title Auction\r\n * @dev Implements auction process\r\n */\r\ncontract Auction {\r\n\r\n    address organizer;\r\n\r\n    // Same Phase will be used for contract as well as item. Invalid for empty items.\r\n    enum Phase {Invalid,Open,Stopped,Closed}\r\n    uint joinFee;\r\n    uint sellFeePercentage;\r\n    Phase state = Phase.Open;\r\n\r\n    struct Bidder {\r\n        address bidder;\r\n        // Amount DANGER of what currency???\r\n        uint amount;\r\n    }\r\n    struct item {\r\n        address seller;\r\n        uint itemID; // Probably won't need if items will be mapping and mapping will have itemID\r\n        uint bidStep;\r\n        uint lastPrice;\r\n        address winner;\r\n        // mapping(address => Bidder) bidders;\r\n        // To get bidder info after stopping item sale or contract closing\r\n        // address[] allBidders;\r\n        Phase state;\r\n    }\r\n    mapping(uint => item) items;\r\n    uint[] allItems;\r\n\r\n    // Modifiers\r\n    modifier onlyOrganizer() {\r\n        require(msg.sender == organizer, \"Only Auction Organizer Can Call This Function!\");\r\n        _;\r\n    }\r\n\r\n    modifier onlySeller(uint itemid) {\r\n        require(items[itemid].seller == msg.sender, \"Only Seller Of This Item Can Call This Function!\");\r\n        _;\r\n    }\r\n\r\n    modifier validPhase(Phase requiredPhase) {\r\n        require(state == requiredPhase);\r\n        _;\r\n    }\r\n\r\n    modifier validItemPhase(uint itemid) {\r\n        require(items[itemid].state == Phase.Open, \"Item Phase Is Closed And Function Cannot Be Called!\");\r\n        _;\r\n    }\r\n\r\n    // Constructor and functions\r\n    constructor(uint sellerJoinFee, uint sellerSellFeePercentage) {\r\n        require(0 <= sellerSellFeePercentage && sellerSellFeePercentage <= 100, \"Sell Fee Percentage Wrong!\");\r\n        organizer = msg.sender;\r\n        joinFee = sellerJoinFee;\r\n        sellFeePercentage = sellerSellFeePercentage;\r\n    }\r\n\r\n    function changeState(Phase p) private {\r\n        require (state < p, \"Invalid State Change Requested!\");\r\n        state = p;\r\n    }\r\n\r\n    function stopJoining() onlyOrganizer validPhase(Phase.Open) public {\r\n        changeState(Phase.Stopped);\r\n    }\r\n\r\n    function closeItemBidding(uint itemid) private returns (bool) {\r\n        items[itemid].state = Phase.Closed;\r\n        if (items[itemid].winner == address(0)) {\r\n            return false;\r\n        }\r\n        uint organizerFee = sellFeePercentage*items[itemid].lastPrice/100;\r\n        payable(organizer).transfer(organizerFee);\r\n        // items[itemid].lastPrice -= organizerFee;\r\n        payable(items[itemid].seller).transfer(items[itemid].lastPrice - organizerFee);\r\n        return true;\r\n    }\r\n\r\n    function closeContract() onlyOrganizer public {\r\n        require(state != Phase.Closed);\r\n        // Iterate through items, change their phase and transfer money\r\n        for (uint i = 0; i < allItems.length; i++) \r\n        {\r\n            if (items[allItems[i]].state != Phase.Closed) {\r\n                closeItemBidding(allItems[i]);\r\n            }\r\n        }\r\n        state = Phase.Closed;\r\n    }\r\n\r\n    function addItem(uint itemid, uint price, uint bidstep) validPhase(Phase.Open) payable public {\r\n        require(msg.value == joinFee, \"Value Sent Is Not Same As Join Fee!\");\r\n        require(price > 0, \"Price Must Be More Than 0!\");\r\n        require(bidstep >= 0, \"Bid Step Must Be 0 Or More!\");\r\n        // Check if item wasn't in sale already\r\n        require(items[itemid].state == Phase.Invalid, \"Item Already Exists!\");\r\n        items[itemid].seller = msg.sender;\r\n        items[itemid].bidStep = bidstep;\r\n        items[itemid].lastPrice = price;\r\n        // At start seller is winner\r\n        // items[itemid].winner = msg.sender;\r\n        items[itemid].state = Phase.Open;\r\n        allItems.push(itemid);\r\n        payable(organizer).transfer(msg.value);\r\n    }\r\n\r\n    // Returns true if there is a winner\r\n    function stopBidding(uint itemid) onlySeller(itemid) public returns(bool) {\r\n        require(items[itemid].state == Phase.Open, \"Cannot Stop Bidding Because Item Is Not In Sale!\");\r\n        return closeItemBidding(itemid);\r\n    }\r\n\r\n    function getWinner(uint itemid) public view returns(address) {\r\n        return items[itemid].winner;\r\n    }\r\n\r\n    function getLastPrice(uint itemid) public view returns(uint) {\r\n        return items[itemid].lastPrice;\r\n    }\r\n\r\n    function getBidStep(uint itemid) public view returns(uint) {\r\n        return items[itemid].bidStep;\r\n    }\r\n\r\n    function bid(uint itemid) public payable {\r\n        require(items[itemid].state == Phase.Open, \"Item Is Not On Sale!\");\r\n        require(items[itemid].bidStep <= msg.value - items[itemid].lastPrice, \"Bid Step Is Higher Than Bidding!\");\r\n        if (items[itemid].winner != address(0)) {\r\n            payable(items[itemid].winner).transfer(items[itemid].lastPrice);\r\n        }\r\n        items[itemid].lastPrice = msg.value;\r\n        items[itemid].winner = msg.sender;\r\n    }\r\n}",
  "sourcePath": "D:\\Programming\\blockchain-auction\\packages\\auction-contract\\contracts\\Auction.sol",
  "compiler": {
    "name": "solc",
    "version": "0.8.19+commit.7dd6d404.Emscripten.clang"
  },
  "schemaVersion": "3.4.16",
  "updatedAt": "2024-01-09T18:54:17.876Z",
  "devdoc": {
    "details": "Implements auction process",
    "kind": "dev",
    "methods": {},
    "title": "Auction",
    "version": 1
  },
  "userdoc": {
    "kind": "user",
    "methods": {},
    "version": 1
  }
}