{
  "contractName": "Auction",
  "abi": [
    {
      "inputs": [
        {
          "internalType": "uint256",
          "name": "sellerJoinFee",
          "type": "uint256"
        },
        {
          "internalType": "uint256",
          "name": "sellerSellFeePercentage",
          "type": "uint256"
        }
      ],
      "stateMutability": "nonpayable",
      "type": "constructor"
    },
    {
      "inputs": [],
      "name": "stopJoining",
      "outputs": [],
      "stateMutability": "nonpayable",
      "type": "function"
    },
    {
      "inputs": [],
      "name": "closeContract",
      "outputs": [],
      "stateMutability": "nonpayable",
      "type": "function"
    },
    {
      "inputs": [
        {
          "internalType": "uint256",
          "name": "itemid",
          "type": "uint256"
        },
        {
          "internalType": "uint256",
          "name": "price",
          "type": "uint256"
        },
        {
          "internalType": "uint256",
          "name": "bidstep",
          "type": "uint256"
        }
      ],
      "name": "addItem",
      "outputs": [],
      "stateMutability": "payable",
      "type": "function"
    },
    {
      "inputs": [
        {
          "internalType": "uint256",
          "name": "itemid",
          "type": "uint256"
        }
      ],
      "name": "stopBidding",
      "outputs": [
        {
          "internalType": "bool",
          "name": "",
          "type": "bool"
        }
      ],
      "stateMutability": "nonpayable",
      "type": "function"
    },
    {
      "inputs": [
        {
          "internalType": "uint256",
          "name": "itemid",
          "type": "uint256"
        }
      ],
      "name": "getWinner",
      "outputs": [
        {
          "internalType": "address",
          "name": "",
          "type": "address"
        }
      ],
      "stateMutability": "view",
      "type": "function"
    },
    {
      "inputs": [
        {
          "internalType": "uint256",
          "name": "itemid",
          "type": "uint256"
        }
      ],
      "name": "getLastPrice",
      "outputs": [
        {
          "internalType": "uint256",
          "name": "",
          "type": "uint256"
        }
      ],
      "stateMutability": "view",
      "type": "function"
    },
    {
      "inputs": [
        {
          "internalType": "uint256",
          "name": "itemid",
          "type": "uint256"
        }
      ],
      "name": "getBidStep",
      "outputs": [
        {
          "internalType": "uint256",
          "name": "",
          "type": "uint256"
        }
      ],
      "stateMutability": "view",
      "type": "function"
    },
    {
      "inputs": [
        {
          "internalType": "uint256",
          "name": "itemid",
          "type": "uint256"
        }
      ],
      "name": "bid",
      "outputs": [],
      "stateMutability": "payable",
      "type": "function"
    }
  ],
  "bytecode": "0x60806040526001600360006101000a81548160ff021916908360038111156200002d576200002c62000110565b5b02179055503480156200003f57600080fd5b50604051620019993803806200199983398181016040528101906200006591906200017f565b8060001115801562000078575060648111155b620000ba576040517f08c379a0000000000000000000000000000000000000000000000000000000008152600401620000b19062000227565b60405180910390fd5b336000806101000a81548173ffffffffffffffffffffffffffffffffffffffff021916908373ffffffffffffffffffffffffffffffffffffffff1602179055508160018190555080600281905550505062000249565b7f4e487b7100000000000000000000000000000000000000000000000000000000600052602160045260246000fd5b600080fd5b6000819050919050565b620001598162000144565b81146200016557600080fd5b50565b60008151905062000179816200014e565b92915050565b600080604083850312156200019957620001986200013f565b5b6000620001a98582860162000168565b9250506020620001bc8582860162000168565b9150509250929050565b600082825260208201905092915050565b7f53656c6c204665652050657263656e746167652057726f6e6721000000000000600082015250565b60006200020f601a83620001c6565b91506200021c82620001d7565b602082019050919050565b60006020820190508181036000830152620002428162000200565b9050919050565b61174080620002596000396000f3fe60806040526004361061007b5760003560e01c806365fa2f7f1161004e57806365fa2f7f1461012d5780636c96a1201461016a578063798a712a14610181578063dcac3aba1461019d5761007b565b8063021baa16146100805780634129b2c9146100bd578063454a2ab3146100fa578063610be65414610116575b600080fd5b34801561008c57600080fd5b506100a760048036038101906100a29190610ed6565b6101da565b6040516100b49190610f1e565b60405180910390f35b3480156100c957600080fd5b506100e460048036038101906100df9190610ed6565b61031c565b6040516100f19190610f7a565b60405180910390f35b610114600480360381019061010f9190610ed6565b61035c565b005b34801561012257600080fd5b5061012b6105d1565b005b34801561013957600080fd5b50610154600480360381019061014f9190610ed6565b610783565b6040516101619190610fa4565b60405180910390f35b34801561017657600080fd5b5061017f6107a3565b005b61019b60048036038101906101969190610fbf565b6108b5565b005b3480156101a957600080fd5b506101c460048036038101906101bf9190610ed6565b610be1565b6040516101d19190610fa4565b60405180910390f35b6000813373ffffffffffffffffffffffffffffffffffffffff166004600083815260200190815260200160002060000160009054906101000a900473ffffffffffffffffffffffffffffffffffffffff1673ffffffffffffffffffffffffffffffffffffffff1614610281576040517f08c379a000000000000000000000000000000000000000000000000000000000815260040161027890611095565b60405180910390fd5b60016003811115610295576102946110b5565b5b6004600085815260200190815260200160002060040160149054906101000a900460ff1660038111156102cb576102ca6110b5565b5b1461030b576040517f08c379a000000000000000000000000000000000000000000000000000000000815260040161030290611156565b60405180910390fd5b61031483610c01565b915050919050565b60006004600083815260200190815260200160002060040160009054906101000a900473ffffffffffffffffffffffffffffffffffffffff169050919050565b600160038111156103705761036f6110b5565b5b6004600083815260200190815260200160002060040160149054906101000a900460ff1660038111156103a6576103a56110b5565b5b146103e6576040517f08c379a00000000000000000000000000000000000000000000000000000000081526004016103dd906111c2565b60405180910390fd5b6004600082815260200190815260200160002060030154346104089190611211565b60046000838152602001908152602001600020600201541115610460576040517f08c379a000000000000000000000000000000000000000000000000000000000815260040161045790611291565b60405180910390fd5b600073ffffffffffffffffffffffffffffffffffffffff166004600083815260200190815260200160002060040160009054906101000a900473ffffffffffffffffffffffffffffffffffffffff1673ffffffffffffffffffffffffffffffffffffffff161461055e576004600082815260200190815260200160002060040160009054906101000a900473ffffffffffffffffffffffffffffffffffffffff1673ffffffffffffffffffffffffffffffffffffffff166108fc60046000848152602001908152602001600020600301549081150290604051600060405180830381858888f1935050505015801561055c573d6000803e3d6000fd5b505b346004600083815260200190815260200160002060030181905550336004600083815260200190815260200160002060040160006101000a81548173ffffffffffffffffffffffffffffffffffffffff021916908373ffffffffffffffffffffffffffffffffffffffff16021790555050565b60008054906101000a900473ffffffffffffffffffffffffffffffffffffffff1673ffffffffffffffffffffffffffffffffffffffff163373ffffffffffffffffffffffffffffffffffffffff161461065f576040517f08c379a000000000000000000000000000000000000000000000000000000000815260040161065690611323565b60405180910390fd5b600380811115610672576106716110b5565b5b600360009054906101000a900460ff166003811115610694576106936110b5565b5b0361069e57600080fd5b60005b600580549050811015610756576003808111156106c1576106c06110b5565b5b60046000600584815481106106d9576106d8611343565b5b9060005260206000200154815260200190815260200160002060040160149054906101000a900460ff166003811115610715576107146110b5565b5b14610743576107416005828154811061073157610730611343565b5b9060005260206000200154610c01565b505b808061074e90611372565b9150506106a1565b5060038060006101000a81548160ff0219169083600381111561077c5761077b6110b5565b5b0217905550565b600060046000838152602001908152602001600020600301549050919050565b60008054906101000a900473ffffffffffffffffffffffffffffffffffffffff1673ffffffffffffffffffffffffffffffffffffffff163373ffffffffffffffffffffffffffffffffffffffff1614610831576040517f08c379a000000000000000000000000000000000000000000000000000000000815260040161082890611323565b60405180910390fd5b6001806003811115610846576108456110b5565b5b600360009054906101000a900460ff166003811115610868576108676110b5565b5b146108a8576040517f08c379a000000000000000000000000000000000000000000000000000000000815260040161089f90611406565b60405180910390fd5b6108b26002610df9565b50565b60018060038111156108ca576108c96110b5565b5b600360009054906101000a900460ff1660038111156108ec576108eb6110b5565b5b1461092c576040517f08c379a000000000000000000000000000000000000000000000000000000000815260040161092390611406565b60405180910390fd5b6001543414610970576040517f08c379a000000000000000000000000000000000000000000000000000000000815260040161096790611498565b60405180910390fd5b600083116109b3576040517f08c379a00000000000000000000000000000000000000000000000000000000081526004016109aa90611504565b60405180910390fd5b60008210156109f7576040517f08c379a00000000000000000000000000000000000000000000000000000000081526004016109ee90611570565b60405180910390fd5b60006003811115610a0b57610a0a6110b5565b5b6004600086815260200190815260200160002060040160149054906101000a900460ff166003811115610a4157610a406110b5565b5b14610a81576040517f08c379a0000000000000000000000000000000000000000000000000000000008152600401610a78906115dc565b60405180910390fd5b336004600086815260200190815260200160002060000160006101000a81548173ffffffffffffffffffffffffffffffffffffffff021916908373ffffffffffffffffffffffffffffffffffffffff16021790555081600460008681526020019081526020016000206002018190555082600460008681526020019081526020016000206003018190555060016004600086815260200190815260200160002060040160146101000a81548160ff02191690836003811115610b4657610b456110b5565b5b0217905550600584908060018154018082558091505060019003906000526020600020016000909190919091505560008054906101000a900473ffffffffffffffffffffffffffffffffffffffff1673ffffffffffffffffffffffffffffffffffffffff166108fc349081150290604051600060405180830381858888f19350505050158015610bda573d6000803e3d6000fd5b5050505050565b600060046000838152602001908152602001600020600201549050919050565b600060036004600084815260200190815260200160002060040160146101000a81548160ff02191690836003811115610c3d57610c3c6110b5565b5b0217905550600073ffffffffffffffffffffffffffffffffffffffff166004600084815260200190815260200160002060040160009054906101000a900473ffffffffffffffffffffffffffffffffffffffff1673ffffffffffffffffffffffffffffffffffffffff1603610cb55760009050610df4565b600060646004600085815260200190815260200160002060030154600254610cdd91906115fc565b610ce7919061166d565b905060008054906101000a900473ffffffffffffffffffffffffffffffffffffffff1673ffffffffffffffffffffffffffffffffffffffff166108fc829081150290604051600060405180830381858888f19350505050158015610d4f573d6000803e3d6000fd5b506004600084815260200190815260200160002060000160009054906101000a900473ffffffffffffffffffffffffffffffffffffffff1673ffffffffffffffffffffffffffffffffffffffff166108fc826004600087815260200190815260200160002060030154610dc29190611211565b9081150290604051600060405180830381858888f19350505050158015610ded573d6000803e3d6000fd5b5060019150505b919050565b806003811115610e0c57610e0b6110b5565b5b600360009054906101000a900460ff166003811115610e2e57610e2d6110b5565b5b10610e6e576040517f08c379a0000000000000000000000000000000000000000000000000000000008152600401610e65906116ea565b60405180910390fd5b80600360006101000a81548160ff02191690836003811115610e9357610e926110b5565b5b021790555050565b600080fd5b6000819050919050565b610eb381610ea0565b8114610ebe57600080fd5b50565b600081359050610ed081610eaa565b92915050565b600060208284031215610eec57610eeb610e9b565b5b6000610efa84828501610ec1565b91505092915050565b60008115159050919050565b610f1881610f03565b82525050565b6000602082019050610f336000830184610f0f565b92915050565b600073ffffffffffffffffffffffffffffffffffffffff82169050919050565b6000610f6482610f39565b9050919050565b610f7481610f59565b82525050565b6000602082019050610f8f6000830184610f6b565b92915050565b610f9e81610ea0565b82525050565b6000602082019050610fb96000830184610f95565b92915050565b600080600060608486031215610fd857610fd7610e9b565b5b6000610fe686828701610ec1565b9350506020610ff786828701610ec1565b925050604061100886828701610ec1565b9150509250925092565b600082825260208201905092915050565b7f4f6e6c792053656c6c6572204f662054686973204974656d2043616e2043616c60008201527f6c20546869732046756e6374696f6e2100000000000000000000000000000000602082015250565b600061107f603083611012565b915061108a82611023565b604082019050919050565b600060208201905081810360008301526110ae81611072565b9050919050565b7f4e487b7100000000000000000000000000000000000000000000000000000000600052602160045260246000fd5b7f43616e6e6f742053746f702042696464696e672042656361757365204974656d60008201527f204973204e6f7420496e2053616c652100000000000000000000000000000000602082015250565b6000611140603083611012565b915061114b826110e4565b604082019050919050565b6000602082019050818103600083015261116f81611133565b9050919050565b7f4974656d204973204e6f74204f6e2053616c6521000000000000000000000000600082015250565b60006111ac601483611012565b91506111b782611176565b602082019050919050565b600060208201905081810360008301526111db8161119f565b9050919050565b7f4e487b7100000000000000000000000000000000000000000000000000000000600052601160045260246000fd5b600061121c82610ea0565b915061122783610ea0565b925082820390508181111561123f5761123e6111e2565b5b92915050565b7f426964205374657020497320486967686572205468616e2042696464696e6721600082015250565b600061127b602083611012565b915061128682611245565b602082019050919050565b600060208201905081810360008301526112aa8161126e565b9050919050565b7f4f6e6c792041756374696f6e204f7267616e697a65722043616e2043616c6c2060008201527f546869732046756e6374696f6e21000000000000000000000000000000000000602082015250565b600061130d602e83611012565b9150611318826112b1565b604082019050919050565b6000602082019050818103600083015261133c81611300565b9050919050565b7f4e487b7100000000000000000000000000000000000000000000000000000000600052603260045260246000fd5b600061137d82610ea0565b91507fffffffffffffffffffffffffffffffffffffffffffffffffffffffffffffffff82036113af576113ae6111e2565b5b600182019050919050565b7f43757272656e7420436f6e74726163742053746174652049732057726f6e6721600082015250565b60006113f0602083611012565b91506113fb826113ba565b602082019050919050565b6000602082019050818103600083015261141f816113e3565b9050919050565b7f56616c75652053656e74204973204e6f742053616d65204173204a6f696e204660008201527f6565210000000000000000000000000000000000000000000000000000000000602082015250565b6000611482602383611012565b915061148d82611426565b604082019050919050565b600060208201905081810360008301526114b181611475565b9050919050565b7f5072696365204d757374204265204d6f7265205468616e203021000000000000600082015250565b60006114ee601a83611012565b91506114f9826114b8565b602082019050919050565b6000602082019050818103600083015261151d816114e1565b9050919050565b7f4269642053746570204d7573742042652030204f72204d6f7265210000000000600082015250565b600061155a601b83611012565b915061156582611524565b602082019050919050565b600060208201905081810360008301526115898161154d565b9050919050565b7f4974656d20416c72656164792045786973747321000000000000000000000000600082015250565b60006115c6601483611012565b91506115d182611590565b602082019050919050565b600060208201905081810360008301526115f5816115b9565b9050919050565b600061160782610ea0565b915061161283610ea0565b925082820261162081610ea0565b91508282048414831517611637576116366111e2565b5b5092915050565b7f4e487b7100000000000000000000000000000000000000000000000000000000600052601260045260246000fd5b600061167882610ea0565b915061168383610ea0565b9250826116935761169261163e565b5b828204905092915050565b7f496e76616c6964205374617465204368616e6765205265717565737465642100600082015250565b60006116d4601f83611012565b91506116df8261169e565b602082019050919050565b60006020820190508181036000830152611703816116c7565b905091905056fea2646970667358221220f657666c003dd8ddc9d6be0d9ba84e573d0ca1c2a7aa5deea69142b8ebbf8aa064736f6c63430008130033",
  "immutableReferences": {},
  "source": "// SPDX-License-Identifier: UNLICENSED\r\n\r\npragma solidity 0.8.19;\r\n\r\n/** \r\n * @title Auction\r\n * @dev Implements auction process\r\n */\r\ncontract Auction {\r\n\r\n    address organizer;\r\n\r\n    // Same Phase will be used for contract as well as item. Invalid for empty items.\r\n    enum Phase {Invalid,Open,Stopped,Closed}\r\n    uint joinFee;\r\n    uint sellFeePercentage;\r\n    Phase state = Phase.Open;\r\n\r\n    struct Bidder {\r\n        address bidder;\r\n        // Amount DANGER of what currency???\r\n        uint amount;\r\n    }\r\n    struct item {\r\n        address seller;\r\n        uint itemID; // Probably won't need if items will be mapping and mapping will have itemID\r\n        uint bidStep;\r\n        uint lastPrice;\r\n        address winner;\r\n        // mapping(address => Bidder) bidders;\r\n        // To get bidder info after stopping item sale or contract closing\r\n        // address[] allBidders;\r\n        Phase state;\r\n    }\r\n    mapping(uint => item) items;\r\n    uint[] allItems;\r\n\r\n    // Modifiers\r\n    modifier onlyOrganizer() {\r\n        require(msg.sender == organizer, \"Only Auction Organizer Can Call This Function!\");\r\n        _;\r\n    }\r\n\r\n    modifier onlySeller(uint itemid) {\r\n        require(items[itemid].seller == msg.sender, \"Only Seller Of This Item Can Call This Function!\");\r\n        _;\r\n    }\r\n\r\n    modifier validPhase(Phase requiredPhase) {\r\n        require(state == requiredPhase, \"Current Contract State Is Wrong!\");\r\n        _;\r\n    }\r\n\r\n    modifier validItemPhase(uint itemid) {\r\n        require(items[itemid].state == Phase.Open, \"Item Phase Is Closed And Function Cannot Be Called!\");\r\n        _;\r\n    }\r\n\r\n    // Constructor and functions\r\n    constructor(uint sellerJoinFee, uint sellerSellFeePercentage) {\r\n        require(0 <= sellerSellFeePercentage && sellerSellFeePercentage <= 100, \"Sell Fee Percentage Wrong!\");\r\n        organizer = msg.sender;\r\n        joinFee = sellerJoinFee;\r\n        sellFeePercentage = sellerSellFeePercentage;\r\n    }\r\n\r\n    function changeState(Phase p) private {\r\n        require (state < p, \"Invalid State Change Requested!\");\r\n        state = p;\r\n    }\r\n\r\n    function stopJoining() onlyOrganizer validPhase(Phase.Open) public {\r\n        changeState(Phase.Stopped);\r\n    }\r\n\r\n    function closeItemBidding(uint itemid) private returns (bool) {\r\n        items[itemid].state = Phase.Closed;\r\n        if (items[itemid].winner == address(0)) {\r\n            return false;\r\n        }\r\n        uint organizerFee = sellFeePercentage*items[itemid].lastPrice/100;\r\n        payable(organizer).transfer(organizerFee);\r\n        // items[itemid].lastPrice -= organizerFee;\r\n        payable(items[itemid].seller).transfer(items[itemid].lastPrice - organizerFee);\r\n        return true;\r\n    }\r\n\r\n    function closeContract() onlyOrganizer public {\r\n        require(state != Phase.Closed);\r\n        // Iterate through items, change their phase and transfer money\r\n        for (uint i = 0; i < allItems.length; i++) \r\n        {\r\n            if (items[allItems[i]].state != Phase.Closed) {\r\n                closeItemBidding(allItems[i]);\r\n            }\r\n        }\r\n        state = Phase.Closed;\r\n    }\r\n\r\n    function addItem(uint itemid, uint price, uint bidstep) validPhase(Phase.Open) payable public {\r\n        require(msg.value == joinFee, \"Value Sent Is Not Same As Join Fee!\");\r\n        require(price > 0, \"Price Must Be More Than 0!\");\r\n        require(bidstep >= 0, \"Bid Step Must Be 0 Or More!\");\r\n        // Check if item wasn't in sale already\r\n        require(items[itemid].state == Phase.Invalid, \"Item Already Exists!\");\r\n        items[itemid].seller = msg.sender;\r\n        items[itemid].bidStep = bidstep;\r\n        items[itemid].lastPrice = price;\r\n        // At start seller is winner\r\n        // items[itemid].winner = msg.sender;\r\n        items[itemid].state = Phase.Open;\r\n        allItems.push(itemid);\r\n        payable(organizer).transfer(msg.value);\r\n    }\r\n\r\n    // Returns true if there is a winner\r\n    function stopBidding(uint itemid) onlySeller(itemid) public returns(bool) {\r\n        require(items[itemid].state == Phase.Open, \"Cannot Stop Bidding Because Item Is Not In Sale!\");\r\n        return closeItemBidding(itemid);\r\n    }\r\n\r\n    function getWinner(uint itemid) public view returns(address) {\r\n        return items[itemid].winner;\r\n    }\r\n\r\n    function getLastPrice(uint itemid) public view returns(uint) {\r\n        return items[itemid].lastPrice;\r\n    }\r\n\r\n    function getBidStep(uint itemid) public view returns(uint) {\r\n        return items[itemid].bidStep;\r\n    }\r\n\r\n    function bid(uint itemid) public payable {\r\n        require(items[itemid].state == Phase.Open, \"Item Is Not On Sale!\");\r\n        require(items[itemid].bidStep <= msg.value - items[itemid].lastPrice, \"Bid Step Is Higher Than Bidding!\");\r\n        if (items[itemid].winner != address(0)) {\r\n            payable(items[itemid].winner).transfer(items[itemid].lastPrice);\r\n        }\r\n        items[itemid].lastPrice = msg.value;\r\n        items[itemid].winner = msg.sender;\r\n    }\r\n}",
  "sourcePath": "D:\\Programming\\blockchain-auction\\packages\\auction-contract\\contracts\\Auction.sol",
  "compiler": {
    "name": "solc",
    "version": "0.8.19+commit.7dd6d404.Emscripten.clang"
  },
  "schemaVersion": "3.4.16",
  "updatedAt": "2024-01-24T16:50:26.496Z",
  "devdoc": {
    "details": "Implements auction process",
    "kind": "dev",
    "methods": {},
    "title": "Auction",
    "version": 1
  },
  "userdoc": {
    "kind": "user",
    "methods": {},
    "version": 1
  }
}